{
  "contractName": "Client",
  "abi": [
    {
      "constant": true,
      "inputs": [],
      "name": "seq",
      "outputs": [
        {
          "name": "",
          "type": "bytes32"
        }
      ],
      "payable": false,
      "stateMutability": "view",
      "type": "function"
    },
    {
      "constant": true,
      "inputs": [
        {
          "name": "",
          "type": "bytes32"
        }
      ],
      "name": "finalResultOnCamp",
      "outputs": [
        {
          "name": "",
          "type": "uint8"
        }
      ],
      "payable": false,
      "stateMutability": "view",
      "type": "function"
    },
    {
      "inputs": [
        {
          "name": "_custodianAddr",
          "type": "address"
        }
      ],
      "payable": false,
      "stateMutability": "nonpayable",
      "type": "constructor"
    },
    {
      "anonymous": false,
      "inputs": [
        {
          "indexed": false,
          "name": "seq",
          "type": "bytes32"
        },
        {
          "indexed": false,
          "name": "finalResult",
          "type": "uint8"
        }
      ],
      "name": "VoteCampFinished",
      "type": "event"
    },
    {
      "constant": false,
      "inputs": [
        {
          "name": "_value",
          "type": "bool"
        }
      ],
      "name": "vote",
      "outputs": [],
      "payable": false,
      "stateMutability": "nonpayable",
      "type": "function"
    },
    {
      "constant": false,
      "inputs": [],
      "name": "storeFinalState",
      "outputs": [],
      "payable": false,
      "stateMutability": "nonpayable",
      "type": "function"
    },
    {
      "constant": false,
      "inputs": [],
      "name": "syncToNewlyOpenedSeq",
      "outputs": [],
      "payable": false,
      "stateMutability": "nonpayable",
      "type": "function"
    }
  ],
  "bytecode": "0x608060405234801561001057600080fd5b506040516020806105758339810180604052810190808051906020019092919050505080600160006101000a81548173ffffffffffffffffffffffffffffffffffffffff021916908373ffffffffffffffffffffffffffffffffffffffff160217905550506104f1806100846000396000f30060806040526004361061006d576000357c0100000000000000000000000000000000000000000000000000000000900463ffffffff1680631cd89cdc146100725780634b9f5c98146100895780636857ab40146100b8578063773822a6146100eb578063f740969414610102575b600080fd5b34801561007e57600080fd5b5061008761014d565b005b34801561009557600080fd5b506100b660048036038101908080351515906020019092919050505061021a565b005b3480156100c457600080fd5b506100cd610393565b60405180826000191660001916815260200191505060405180910390f35b3480156100f757600080fd5b50610100610399565b005b34801561010e57600080fd5b5061013160048036038101908080356000191690602001909291905050506104a5565b604051808260ff1660ff16815260200191505060405180910390f35b600160009054906101000a900473ffffffffffffffffffffffffffffffffffffffff1673ffffffffffffffffffffffffffffffffffffffff16632f8daea26040518163ffffffff167c0100000000000000000000000000000000000000000000000000000000028152600401602060405180830381600087803b1580156101d357600080fd5b505af11580156101e7573d6000803e3d6000fd5b505050506040513d60208110156101fd57600080fd5b810190808051906020019092919050505060008160001916905550565b6000600160009054906101000a900473ffffffffffffffffffffffffffffffffffffffff1673ffffffffffffffffffffffffffffffffffffffff1663c3ccb419600054846040518363ffffffff167c01000000000000000000000000000000000000000000000000000000000281526004018083600019166000191681526020018215151515815260200192505050602060405180830381600087803b1580156102c357600080fd5b505af11580156102d7573d6000803e3d6000fd5b505050506040513d60208110156102ed57600080fd5b81019080805190602001909291905050509050801561038f5761030e610399565b7f8d9bc32690c7b78b7e6a38cbc07f555c6942c1a36dbeea4b4a0e44184d5bc90b6000546002600080546000191660001916815260200190815260200160002060009054906101000a900460ff166040518083600019166000191681526020018260ff1660ff1681526020019250505060405180910390a161038e61014d565b5b5050565b60005481565b600160009054906101000a900473ffffffffffffffffffffffffffffffffffffffff1673ffffffffffffffffffffffffffffffffffffffff1663f74096946000546040518263ffffffff167c0100000000000000000000000000000000000000000000000000000000028152600401808260001916600019168152602001915050602060405180830381600087803b15801561043457600080fd5b505af1158015610448573d6000803e3d6000fd5b505050506040513d602081101561045e57600080fd5b81019080805190602001909291905050506002600080546000191660001916815260200190815260200160002060006101000a81548160ff021916908360ff160217905550565b60026020528060005260406000206000915054906101000a900460ff16815600a165627a7a723058202b083efe0b838e9e86f981782694c6afe838b5b4f25fca9193f2141c6d2017c60029",
  "source": "import \"./Custodian.sol\";\n\ncontract Client {\n    bytes32 public seq;\n\n    event VoteCampFinished(bytes32 seq, uint8 finalResult);\n  \n    Custodian C;\n    mapping (bytes32 => uint8) public finalResultOnCamp;   // 0 as not finalized, 1 as true, 2 as false\n    \n    constructor(address _custodianAddr) public {\n        C = Custodian(_custodianAddr);\n    }\n    \n    function vote(bool _value) public {\n        bool voteCampFinished = C.acceptVote(seq, _value);\n        \n        if(voteCampFinished) {\n            storeFinalState();\n            emit VoteCampFinished(seq, finalResultOnCamp[seq]);\n\n            syncToNewlyOpenedSeq();\n        }\n    }\n    \n    function storeFinalState() public {\n        finalResultOnCamp[seq] = C.finalResultOnCamp(seq);\n    }\n\n    function syncToNewlyOpenedSeq() public {\n        seq = C.newly_opened_seq();\n    }\n}",
  "sourcePath": "/Users/tingtinglee/hack/CPE/contracts/Client.sol",
  "compiler": {
    "name": "solc",
    "version": "0.4.24+commit.e67f0147.Emscripten.clang"
  },
  "schemaVersion": "2.0.1",
  "updatedAt": "2018-09-11T15:41:50.424Z"
}