{
  "contractName": "Custodian",
  "abi": [
    {
      "constant": true,
      "inputs": [
        {
          "name": "",
          "type": "bytes32"
        }
      ],
      "name": "startTimeOnCamp",
      "outputs": [
        {
          "name": "",
          "type": "uint256"
        }
      ],
      "payable": false,
      "stateMutability": "view",
      "type": "function"
    },
    {
      "constant": true,
      "inputs": [],
      "name": "newly_opened_seq",
      "outputs": [
        {
          "name": "",
          "type": "bytes32"
        }
      ],
      "payable": false,
      "stateMutability": "view",
      "type": "function"
    },
    {
      "constant": false,
      "inputs": [],
      "name": "renounceOwnership",
      "outputs": [],
      "payable": false,
      "stateMutability": "nonpayable",
      "type": "function"
    },
    {
      "constant": true,
      "inputs": [
        {
          "name": "",
          "type": "bytes32"
        }
      ],
      "name": "currVotesBalanceOnCamp",
      "outputs": [
        {
          "name": "",
          "type": "int256"
        }
      ],
      "payable": false,
      "stateMutability": "view",
      "type": "function"
    },
    {
      "constant": true,
      "inputs": [
        {
          "name": "",
          "type": "address"
        }
      ],
      "name": "clientIsKnown",
      "outputs": [
        {
          "name": "",
          "type": "bool"
        }
      ],
      "payable": false,
      "stateMutability": "view",
      "type": "function"
    },
    {
      "constant": true,
      "inputs": [],
      "name": "numOfTotalClients",
      "outputs": [
        {
          "name": "",
          "type": "uint256"
        }
      ],
      "payable": false,
      "stateMutability": "view",
      "type": "function"
    },
    {
      "constant": true,
      "inputs": [],
      "name": "owner",
      "outputs": [
        {
          "name": "",
          "type": "address"
        }
      ],
      "payable": false,
      "stateMutability": "view",
      "type": "function"
    },
    {
      "constant": true,
      "inputs": [],
      "name": "THRESHOLD_OF_PARTICIPANTS",
      "outputs": [
        {
          "name": "",
          "type": "uint8"
        }
      ],
      "payable": false,
      "stateMutability": "view",
      "type": "function"
    },
    {
      "constant": true,
      "inputs": [
        {
          "name": "",
          "type": "bytes32"
        }
      ],
      "name": "votesCountOnCamp",
      "outputs": [
        {
          "name": "",
          "type": "uint256"
        }
      ],
      "payable": false,
      "stateMutability": "view",
      "type": "function"
    },
    {
      "constant": false,
      "inputs": [
        {
          "name": "_newOwner",
          "type": "address"
        }
      ],
      "name": "transferOwnership",
      "outputs": [],
      "payable": false,
      "stateMutability": "nonpayable",
      "type": "function"
    },
    {
      "constant": true,
      "inputs": [],
      "name": "TIMEOUT",
      "outputs": [
        {
          "name": "",
          "type": "uint256"
        }
      ],
      "payable": false,
      "stateMutability": "view",
      "type": "function"
    },
    {
      "constant": true,
      "inputs": [
        {
          "name": "",
          "type": "bytes32"
        }
      ],
      "name": "finalResultOnCamp",
      "outputs": [
        {
          "name": "",
          "type": "uint8"
        }
      ],
      "payable": false,
      "stateMutability": "view",
      "type": "function"
    },
    {
      "anonymous": false,
      "inputs": [
        {
          "indexed": true,
          "name": "previousOwner",
          "type": "address"
        }
      ],
      "name": "OwnershipRenounced",
      "type": "event"
    },
    {
      "anonymous": false,
      "inputs": [
        {
          "indexed": true,
          "name": "previousOwner",
          "type": "address"
        },
        {
          "indexed": true,
          "name": "newOwner",
          "type": "address"
        }
      ],
      "name": "OwnershipTransferred",
      "type": "event"
    },
    {
      "constant": false,
      "inputs": [
        {
          "name": "_seq",
          "type": "bytes32"
        },
        {
          "name": "_value",
          "type": "bool"
        }
      ],
      "name": "acceptVote",
      "outputs": [
        {
          "name": "",
          "type": "bool"
        }
      ],
      "payable": false,
      "stateMutability": "nonpayable",
      "type": "function"
    }
  ],
  "bytecode": "0x6080604052603c600060146101000a81548160ff021916908360ff16021790555062015180600255336000806101000a81548173ffffffffffffffffffffffffffffffffffffffff021916908373ffffffffffffffffffffffffffffffffffffffff160217905550610b50806100766000396000f3006080604052600436106100c5576000357c0100000000000000000000000000000000000000000000000000000000900463ffffffff16806317424a59146100ca5780632f8daea21461010f578063715018a6146101425780637968bb881461015957806387fb75e51461019e5780638b737696146101f95780638da5cb5b14610224578063c3ccb4191461027b578063cfa4a4ff146102d0578063e910ce7014610301578063f2fde38b14610346578063f56f48f214610389578063f7409694146103b4575b600080fd5b3480156100d657600080fd5b506100f960048036038101908080356000191690602001909291905050506103ff565b6040518082815260200191505060405180910390f35b34801561011b57600080fd5b50610124610417565b60405180826000191660001916815260200191505060405180910390f35b34801561014e57600080fd5b5061015761041d565b005b34801561016557600080fd5b50610188600480360381019080803560001916906020019092919050505061051f565b6040518082815260200191505060405180910390f35b3480156101aa57600080fd5b506101df600480360381019080803573ffffffffffffffffffffffffffffffffffffffff169060200190929190505050610537565b604051808215151515815260200191505060405180910390f35b34801561020557600080fd5b5061020e610557565b6040518082815260200191505060405180910390f35b34801561023057600080fd5b5061023961055d565b604051808273ffffffffffffffffffffffffffffffffffffffff1673ffffffffffffffffffffffffffffffffffffffff16815260200191505060405180910390f35b34801561028757600080fd5b506102b66004803603810190808035600019169060200190929190803515159060200190929190505050610582565b604051808215151515815260200191505060405180910390f35b3480156102dc57600080fd5b506102e5610972565b604051808260ff1660ff16815260200191505060405180910390f35b34801561030d57600080fd5b506103306004803603810190808035600019169060200190929190505050610985565b6040518082815260200191505060405180910390f35b34801561035257600080fd5b50610387600480360381019080803573ffffffffffffffffffffffffffffffffffffffff16906020019092919050505061099d565b005b34801561039557600080fd5b5061039e610a04565b6040518082815260200191505060405180910390f35b3480156103c057600080fd5b506103e36004803603810190808035600019169060200190929190505050610a0a565b604051808260ff1660ff16815260200191505060405180910390f35b60076020528060005260406000206000915090505481565b60035481565b6000809054906101000a900473ffffffffffffffffffffffffffffffffffffffff1673ffffffffffffffffffffffffffffffffffffffff163373ffffffffffffffffffffffffffffffffffffffff1614151561047857600080fd5b6000809054906101000a900473ffffffffffffffffffffffffffffffffffffffff1673ffffffffffffffffffffffffffffffffffffffff167ff8df31144d9c2f0f6b59d69b8b98abd5459d07f2742c4df920b25aae33c6482060405160405180910390a260008060006101000a81548173ffffffffffffffffffffffffffffffffffffffff021916908373ffffffffffffffffffffffffffffffffffffffff160217905550565b60066020528060005260406000206000915090505481565b60086020528060005260406000206000915054906101000a900460ff1681565b60015481565b6000809054906101000a900473ffffffffffffffffffffffffffffffffffffffff1681565b600080339050600960008273ffffffffffffffffffffffffffffffffffffffff1673ffffffffffffffffffffffffffffffffffffffff1681526020019081526020016000206000856000191660001916815260200190815260200160002060009054906101000a900460ff16156105f857600080fd5b6001600960008373ffffffffffffffffffffffffffffffffffffffff1673ffffffffffffffffffffffffffffffffffffffff1681526020019081526020016000206000866000191660001916815260200190815260200160002060006101000a81548160ff021916908315150217905550600860008273ffffffffffffffffffffffffffffffffffffffff1673ffffffffffffffffffffffffffffffffffffffff16815260200190815260200160002060009054906101000a900460ff161515610727576001600860008373ffffffffffffffffffffffffffffffffffffffff1673ffffffffffffffffffffffffffffffffffffffff16815260200190815260200160002060006101000a81548160ff0219169083151502179055506001600081548092919060010191905055505b600060046000866000191660001916815260200190815260200160002054141561076c5742600760008660001916600019168152602001908152602001600020819055505b600160046000866000191660001916815260200190815260200160002054016004600086600019166000191681526020019081526020016000208190555082156107e0576006600085600019166000191681526020019081526020016000206000815480929190600101919050555061080d565b60066000856000191660001916815260200190815260200160002060008154809291906001900391905055505b6064600154600060149054906101000a900460ff1660ff160281151561082f57fe5b04600460008660001916600019168152602001908152602001600020541180610877575060025460076000866000191660001916815260200190815260200160002054014210155b156109665760006006600086600019166000191681526020019081526020016000205413156108da57600160056000866000191660001916815260200190815260200160002060006101000a81548160ff021916908360ff160217905550610935565b600060066000866000191660001916815260200190815260200160002054121561093457600260056000866000191660001916815260200190815260200160002060006101000a81548160ff021916908360ff1602179055505b5b836040518082600019166000191681526020019150506040518091039020600381600019169055506001915061096b565b600091505b5092915050565b600060149054906101000a900460ff1681565b60046020528060005260406000206000915090505481565b6000809054906101000a900473ffffffffffffffffffffffffffffffffffffffff1673ffffffffffffffffffffffffffffffffffffffff163373ffffffffffffffffffffffffffffffffffffffff161415156109f857600080fd5b610a0181610a2a565b50565b60025481565b60056020528060005260406000206000915054906101000a900460ff1681565b600073ffffffffffffffffffffffffffffffffffffffff168173ffffffffffffffffffffffffffffffffffffffff1614151515610a6657600080fd5b8073ffffffffffffffffffffffffffffffffffffffff166000809054906101000a900473ffffffffffffffffffffffffffffffffffffffff1673ffffffffffffffffffffffffffffffffffffffff167f8be0079c531659141344cd1fd0a4f28419497f9722a3daafe3b4186f6b6457e060405160405180910390a3806000806101000a81548173ffffffffffffffffffffffffffffffffffffffff021916908373ffffffffffffffffffffffffffffffffffffffff160217905550505600a165627a7a72305820c9531f77aeefc7fc8afd1eb053566d539c4c595596868d0e07c82e437553ed480029",
  "source": "pragma solidity ^0.4.24;\n\nimport \"./Ownable.sol\";\n\ncontract Custodian is Ownable {\n    \n    uint8 public THRESHOLD_OF_PARTICIPANTS = 60;\n    \n    uint256 public numOfTotalClients;\n    uint256 public TIMEOUT = 1 days;\n    bytes32 public newly_opened_seq;\n    \n    mapping (bytes32 => uint256) public votesCountOnCamp;       // Total number of votes\n    mapping (bytes32 => uint8) public finalResultOnCamp;        // Final result: 0 as not finalized, 1 as true, 2 as false\n    mapping (bytes32 => int) public currVotesBalanceOnCamp;     // Current vote balance \n    mapping (bytes32 => uint256) public startTimeOnCamp;        // Start time \n    mapping (address => bool) public clientIsKnown;             // Client is known/or not, to calculate total number of clients\n    mapping (address => mapping (bytes32 => bool)) clientHasVotedOnSeq;\n    \n    \n    function acceptVote(bytes32 _seq, bool _value) public returns (bool)  {\n        \n        address client = msg.sender;\n        \n        // Each client has single vote on a Seq\n        if (clientHasVotedOnSeq[client][_seq]) revert();\n        clientHasVotedOnSeq[client][_seq] = true;\n        \n        // Check clientIsKnown, maintain the growth of the voters' population\n        if (!clientIsKnown[client]) {\n            clientIsKnown[client] = true;\n            numOfTotalClients++;\n        }\n        \n        // update start time if this is the first vote on this camp ID\n        if (votesCountOnCamp[_seq] == 0) {      // Unknown sequence\n            startTimeOnCamp[_seq] = now;\n        } \n        \n        // update total counts\n        votesCountOnCamp[_seq] = votesCountOnCamp[_seq] + 1;\n        \n        // update vote balance\n        if (_value) {\n            currVotesBalanceOnCamp[_seq] ++;\n        } else {\n            currVotesBalanceOnCamp[_seq] --;\n        }\n        \n        // check finalization\n        // threshiold of participanst OR timeout\n        if ((votesCountOnCamp[_seq] > (THRESHOLD_OF_PARTICIPANTS * numOfTotalClients / 100)) \n            || (now >= startTimeOnCamp[_seq] + TIMEOUT)) {\n            if (currVotesBalanceOnCamp[_seq] > 0) { \n                finalResultOnCamp[_seq] = 1;\n            } else if (currVotesBalanceOnCamp[_seq] < 0) {\n                finalResultOnCamp[_seq] = 2;\n            } // 0 do nothing\n            newly_opened_seq = keccak256(_seq);\n            \n            return true;\n        } \n        \n        return false;\n\n    }\n    \n\n}\n",
  "sourcePath": "/Users/tingtinglee/hack/CPE/contracts/Custodian.sol",
  "compiler": {
    "name": "solc",
    "version": "0.4.24+commit.e67f0147.Emscripten.clang"
  },
  "schemaVersion": "2.0.1",
  "updatedAt": "2018-09-11T15:41:50.425Z"
}